{
  "contractName": "BalanceChecker",
  "abi": [
    {
      "payable": true,
      "stateMutability": "payable",
      "type": "fallback"
    },
    {
      "constant": true,
      "inputs": [
        {
          "name": "user",
          "type": "address"
        },
        {
          "name": "token",
          "type": "address"
        }
      ],
      "name": "tokenBalance",
      "outputs": [
        {
          "name": "",
          "type": "uint256"
        }
      ],
      "payable": false,
      "stateMutability": "view",
      "type": "function"
    },
    {
      "constant": true,
      "inputs": [
        {
          "name": "users",
          "type": "address[]"
        },
        {
          "name": "tokens",
          "type": "address[]"
        }
      ],
      "name": "balances",
      "outputs": [
        {
          "name": "",
          "type": "uint256[]"
        }
      ],
      "payable": false,
      "stateMutability": "view",
      "type": "function"
    }
  ],
  "bytecode": "0x608060405234801561001057600080fd5b50610428806100206000396000f30060806040526004361061004b5763ffffffff7c01000000000000000000000000000000000000000000000000000000006000350416631049334f81146100d8578063f0002ea914610111575b604080517f08c379a000000000000000000000000000000000000000000000000000000000815260206004820152602760248201527f42616c616e6365436865636b657220646f6573206e6f7420616363657074207060448201527f61796d656e747300000000000000000000000000000000000000000000000000606482015290519081900360840190fd5b3480156100e457600080fd5b506100ff600160a060020a036004358116906024351661018d565b60408051918252519081900360200190f35b34801561011d57600080fd5b5061013d60246004803582810192908201359181359182019101356102b0565b60408051602080825283518183015283519192839290830191858101910280838360005b83811015610179578181015183820152602001610161565b505050509050019250505060405180910390f35b6000813b81811180156101f85750604080517f70a08231000000000000000000000000000000000000000000000000000000008152600160a060020a0386811660048301529151918516916370a0823191602480820192600092909190829003018183875af1925050505b156102a45782600160a060020a03166370a08231856040518263ffffffff167c01000000000000000000000000000000000000000000000000000000000281526004018082600160a060020a0316600160a060020a03168152602001915050602060405180830381600087803b15801561027157600080fd5b505af1158015610285573d6000803e3d6000fd5b505050506040513d602081101561029b57600080fd5b505191506102a9565b600091505b5092915050565b60608060008060008888905087879050026040519080825280602002602001820160405280156102ea578160200160208202803883390190505b509350600092505b878310156103ef57600091505b858210156103e457508482028101600087878481811061031b57fe5b90506020020135600160a060020a0316600160a060020a031614151561039a5761037d89898581811061034a57fe5b90506020020135600160a060020a0316888885818110151561036857fe5b90506020020135600160a060020a031661018d565b848281518110151561038b57fe5b602090810290910101526103d9565b8888848181106103a657fe5b90506020020135600160a060020a0316600160a060020a03163184828151811015156103ce57fe5b602090810290910101525b6001909101906102ff565b6001909201916102f2565b50919796505050505050505600a165627a7a723058203f2f1ba0a9b6d8fb755a204cf6b82eac243fadcbd6a46e0f8c75a197c9e3afca0029",
  "source": "// Built off of https://github.com/DeltaBalances/DeltaBalances.github.io/blob/master/smart_contract/deltabalances.sol\npragma solidity =0.4.26;\n\n// ERC20 contract interface\ncontract Token {\n    function balanceOf(address) public view returns (uint256);\n}\n\ncontract BalanceChecker {\n    /* Fallback function, don't accept any ETH */\n    function() public payable {\n        revert(\"BalanceChecker does not accept payments\");\n    }\n\n    /*\n    Check the token balance of a wallet in a token contract\n    Returns the balance of the token for user. Avoids possible errors:\n      - return 0 on non-contract address \n      - returns 0 if the contract doesn't implement balanceOf\n  */\n    function tokenBalance(address user, address token) public view returns (uint256) {\n        // check if token is actually a contract\n        uint256 tokenCode;\n        assembly {\n            tokenCode := extcodesize(token)\n        } // contract code size\n\n        // is it a contract and does it implement balanceOf\n        if (tokenCode > 0 && token.call(bytes4(0x70a08231), user)) {\n            return Token(token).balanceOf(user);\n        } else {\n            return 0;\n        }\n    }\n\n    /*\n    Check the token balances of a wallet for multiple tokens.\n    Pass 0x0 as a \"token\" address to get ETH balance.\n    Possible error throws:\n      - extremely large arrays for user and or tokens (gas cost too high) \n          \n    Returns a one-dimensional that's user.length * tokens.length long. The\n    array is ordered by all of the 0th users token balances, then the 1th\n    user, and so on.\n  */\n    function balances(address[] users, address[] tokens) external view returns (uint256[]) {\n        uint256[] memory addrBalances = new uint256[](tokens.length * users.length);\n\n        for (uint256 i = 0; i < users.length; i++) {\n            for (uint256 j = 0; j < tokens.length; j++) {\n                uint256 addrIdx = j + tokens.length * i;\n                if (tokens[j] != address(0x0)) {\n                    addrBalances[addrIdx] = tokenBalance(users[i], tokens[j]);\n                } else {\n                    addrBalances[addrIdx] = users[i].balance; // ETH balance\n                }\n            }\n        }\n\n        return addrBalances;\n    }\n}\n",
  "sourcePath": "/Users/sbacha/solidity-multicall/contracts/BalanaceChecker.sol",
  "compiler": {
    "name": "solc",
    "version": "0.4.26+commit.4563c3fc.Emscripten.clang"
  },
  "schemaVersion": "3.3.4",
  "updatedAt": "2021-03-13T02:29:21.936Z",
  "devdoc": {
    "methods": {}
  },
  "userdoc": {
    "methods": {}
  }
}